:100000000A128A11FC2F00308A000408840A820731
:1000100000345034523449344E34543449344E341C
:100020004734203453345434523449344E344734F2
:0200300000349A
:100EAC00F200831203138716720888000A128A1143
:100EBC0098270A128A110800F20083120313871272
:100ECC000713720888000A128A1198270A128A11CD
:100EDC000800F200831203138712071372088800AC
:100EEC000A128A1198270A128A110800F20083123A
:100EFC00031387120713720888000A128A119827A5
:100F0C000A128A110800FF30F0070318F10AFF30AB
:100F1C00F107700A031D962F710A031D962F972F48
:100F2C00892F0800831203138717E830F000033071
:100F3C00F1000A128A1189270A128A1183120313EB
:100F4C008713E830F0000330F1000A128A11892768
:100F5C000A128A110800F400C32F740884000A12C4
:100F6C008A1103200A128A110A128A1156270A12B0
:100F7C008A110130F3007308F407740884000A1214
:100F8C008A1103200A128A11003A031DCE2FCF2F8B
:100F9C00B32F0800831203138801831603138801EF
:100FAC008312031387018316031387018316031718
:100FBC008801890138300A128A117C270A128A1199
:100FCC000E300A128A116F270A128A1180300A1207
:100FDC008A1162270A128A1101300A128A11B1276A
:100FEC000A128A11F82F0A128A11002883010A1298
:040FFC008A11D02F57
:08400000FF3FFF3FFF3FFF3FC0
:04400E00E42CFF3F60
:00000001FF
